{
  "contractName": "ARTToken",
  "abi": [
    {
      "inputs": [
        {
          "internalType": "string",
          "name": "name",
          "type": "string"
        },
        {
          "internalType": "string",
          "name": "symbol",
          "type": "string"
        },
        {
          "internalType": "string",
          "name": "baseURI",
          "type": "string"
        },
        {
          "internalType": "string",
          "name": "hash",
          "type": "string"
        }
      ],
      "stateMutability": "nonpayable",
      "type": "constructor"
    },
    {
      "anonymous": false,
      "inputs": [
        {
          "indexed": true,
          "internalType": "address",
          "name": "owner",
          "type": "address"
        },
        {
          "indexed": true,
          "internalType": "address",
          "name": "approved",
          "type": "address"
        },
        {
          "indexed": true,
          "internalType": "uint256",
          "name": "tokenId",
          "type": "uint256"
        }
      ],
      "name": "Approval",
      "type": "event"
    },
    {
      "anonymous": false,
      "inputs": [
        {
          "indexed": true,
          "internalType": "address",
          "name": "owner",
          "type": "address"
        },
        {
          "indexed": true,
          "internalType": "address",
          "name": "operator",
          "type": "address"
        },
        {
          "indexed": false,
          "internalType": "bool",
          "name": "approved",
          "type": "bool"
        }
      ],
      "name": "ApprovalForAll",
      "type": "event"
    },
    {
      "anonymous": false,
      "inputs": [
        {
          "indexed": true,
          "internalType": "bytes32",
          "name": "role",
          "type": "bytes32"
        },
        {
          "indexed": true,
          "internalType": "bytes32",
          "name": "previousAdminRole",
          "type": "bytes32"
        },
        {
          "indexed": true,
          "internalType": "bytes32",
          "name": "newAdminRole",
          "type": "bytes32"
        }
      ],
      "name": "RoleAdminChanged",
      "type": "event"
    },
    {
      "anonymous": false,
      "inputs": [
        {
          "indexed": true,
          "internalType": "bytes32",
          "name": "role",
          "type": "bytes32"
        },
        {
          "indexed": true,
          "internalType": "address",
          "name": "account",
          "type": "address"
        },
        {
          "indexed": true,
          "internalType": "address",
          "name": "sender",
          "type": "address"
        }
      ],
      "name": "RoleGranted",
      "type": "event"
    },
    {
      "anonymous": false,
      "inputs": [
        {
          "indexed": true,
          "internalType": "bytes32",
          "name": "role",
          "type": "bytes32"
        },
        {
          "indexed": true,
          "internalType": "address",
          "name": "account",
          "type": "address"
        },
        {
          "indexed": true,
          "internalType": "address",
          "name": "sender",
          "type": "address"
        }
      ],
      "name": "RoleRevoked",
      "type": "event"
    },
    {
      "anonymous": false,
      "inputs": [
        {
          "indexed": true,
          "internalType": "address",
          "name": "from",
          "type": "address"
        },
        {
          "indexed": true,
          "internalType": "address",
          "name": "to",
          "type": "address"
        },
        {
          "indexed": true,
          "internalType": "uint256",
          "name": "tokenId",
          "type": "uint256"
        }
      ],
      "name": "Transfer",
      "type": "event"
    },
    {
      "inputs": [],
      "name": "DEFAULT_ADMIN_ROLE",
      "outputs": [
        {
          "internalType": "bytes32",
          "name": "",
          "type": "bytes32"
        }
      ],
      "stateMutability": "view",
      "type": "function"
    },
    {
      "inputs": [],
      "name": "MINTER_ROLE",
      "outputs": [
        {
          "internalType": "bytes32",
          "name": "",
          "type": "bytes32"
        }
      ],
      "stateMutability": "view",
      "type": "function"
    },
    {
      "inputs": [
        {
          "internalType": "address",
          "name": "to",
          "type": "address"
        },
        {
          "internalType": "uint256",
          "name": "tokenId",
          "type": "uint256"
        }
      ],
      "name": "approve",
      "outputs": [],
      "stateMutability": "nonpayable",
      "type": "function"
    },
    {
      "inputs": [
        {
          "internalType": "address",
          "name": "owner",
          "type": "address"
        }
      ],
      "name": "balanceOf",
      "outputs": [
        {
          "internalType": "uint256",
          "name": "",
          "type": "uint256"
        }
      ],
      "stateMutability": "view",
      "type": "function"
    },
    {
      "inputs": [
        {
          "internalType": "uint256",
          "name": "tokenId",
          "type": "uint256"
        }
      ],
      "name": "getApproved",
      "outputs": [
        {
          "internalType": "address",
          "name": "",
          "type": "address"
        }
      ],
      "stateMutability": "view",
      "type": "function"
    },
    {
      "inputs": [
        {
          "internalType": "bytes32",
          "name": "role",
          "type": "bytes32"
        }
      ],
      "name": "getRoleAdmin",
      "outputs": [
        {
          "internalType": "bytes32",
          "name": "",
          "type": "bytes32"
        }
      ],
      "stateMutability": "view",
      "type": "function"
    },
    {
      "inputs": [
        {
          "internalType": "bytes32",
          "name": "role",
          "type": "bytes32"
        },
        {
          "internalType": "uint256",
          "name": "index",
          "type": "uint256"
        }
      ],
      "name": "getRoleMember",
      "outputs": [
        {
          "internalType": "address",
          "name": "",
          "type": "address"
        }
      ],
      "stateMutability": "view",
      "type": "function"
    },
    {
      "inputs": [
        {
          "internalType": "bytes32",
          "name": "role",
          "type": "bytes32"
        }
      ],
      "name": "getRoleMemberCount",
      "outputs": [
        {
          "internalType": "uint256",
          "name": "",
          "type": "uint256"
        }
      ],
      "stateMutability": "view",
      "type": "function"
    },
    {
      "inputs": [
        {
          "internalType": "bytes32",
          "name": "role",
          "type": "bytes32"
        },
        {
          "internalType": "address",
          "name": "account",
          "type": "address"
        }
      ],
      "name": "grantRole",
      "outputs": [],
      "stateMutability": "nonpayable",
      "type": "function"
    },
    {
      "inputs": [
        {
          "internalType": "bytes32",
          "name": "role",
          "type": "bytes32"
        },
        {
          "internalType": "address",
          "name": "account",
          "type": "address"
        }
      ],
      "name": "hasRole",
      "outputs": [
        {
          "internalType": "bool",
          "name": "",
          "type": "bool"
        }
      ],
      "stateMutability": "view",
      "type": "function"
    },
    {
      "inputs": [
        {
          "internalType": "address",
          "name": "owner",
          "type": "address"
        },
        {
          "internalType": "address",
          "name": "operator",
          "type": "address"
        }
      ],
      "name": "isApprovedForAll",
      "outputs": [
        {
          "internalType": "bool",
          "name": "",
          "type": "bool"
        }
      ],
      "stateMutability": "view",
      "type": "function"
    },
    {
      "inputs": [],
      "name": "name",
      "outputs": [
        {
          "internalType": "string",
          "name": "",
          "type": "string"
        }
      ],
      "stateMutability": "view",
      "type": "function"
    },
    {
      "inputs": [
        {
          "internalType": "uint256",
          "name": "tokenId",
          "type": "uint256"
        }
      ],
      "name": "ownerOf",
      "outputs": [
        {
          "internalType": "address",
          "name": "",
          "type": "address"
        }
      ],
      "stateMutability": "view",
      "type": "function"
    },
    {
      "inputs": [
        {
          "internalType": "bytes32",
          "name": "role",
          "type": "bytes32"
        },
        {
          "internalType": "address",
          "name": "account",
          "type": "address"
        }
      ],
      "name": "renounceRole",
      "outputs": [],
      "stateMutability": "nonpayable",
      "type": "function"
    },
    {
      "inputs": [
        {
          "internalType": "bytes32",
          "name": "role",
          "type": "bytes32"
        },
        {
          "internalType": "address",
          "name": "account",
          "type": "address"
        }
      ],
      "name": "revokeRole",
      "outputs": [],
      "stateMutability": "nonpayable",
      "type": "function"
    },
    {
      "inputs": [
        {
          "internalType": "address",
          "name": "from",
          "type": "address"
        },
        {
          "internalType": "address",
          "name": "to",
          "type": "address"
        },
        {
          "internalType": "uint256",
          "name": "tokenId",
          "type": "uint256"
        }
      ],
      "name": "safeTransferFrom",
      "outputs": [],
      "stateMutability": "nonpayable",
      "type": "function"
    },
    {
      "inputs": [
        {
          "internalType": "address",
          "name": "from",
          "type": "address"
        },
        {
          "internalType": "address",
          "name": "to",
          "type": "address"
        },
        {
          "internalType": "uint256",
          "name": "tokenId",
          "type": "uint256"
        },
        {
          "internalType": "bytes",
          "name": "_data",
          "type": "bytes"
        }
      ],
      "name": "safeTransferFrom",
      "outputs": [],
      "stateMutability": "nonpayable",
      "type": "function"
    },
    {
      "inputs": [
        {
          "internalType": "address",
          "name": "operator",
          "type": "address"
        },
        {
          "internalType": "bool",
          "name": "approved",
          "type": "bool"
        }
      ],
      "name": "setApprovalForAll",
      "outputs": [],
      "stateMutability": "nonpayable",
      "type": "function"
    },
    {
      "inputs": [],
      "name": "symbol",
      "outputs": [
        {
          "internalType": "string",
          "name": "",
          "type": "string"
        }
      ],
      "stateMutability": "view",
      "type": "function"
    },
    {
      "inputs": [
        {
          "internalType": "uint256",
          "name": "index",
          "type": "uint256"
        }
      ],
      "name": "tokenByIndex",
      "outputs": [
        {
          "internalType": "uint256",
          "name": "",
          "type": "uint256"
        }
      ],
      "stateMutability": "view",
      "type": "function"
    },
    {
      "inputs": [
        {
          "internalType": "address",
          "name": "owner",
          "type": "address"
        },
        {
          "internalType": "uint256",
          "name": "index",
          "type": "uint256"
        }
      ],
      "name": "tokenOfOwnerByIndex",
      "outputs": [
        {
          "internalType": "uint256",
          "name": "",
          "type": "uint256"
        }
      ],
      "stateMutability": "view",
      "type": "function"
    },
    {
      "inputs": [],
      "name": "totalSupply",
      "outputs": [
        {
          "internalType": "uint256",
          "name": "",
          "type": "uint256"
        }
      ],
      "stateMutability": "view",
      "type": "function"
    },
    {
      "inputs": [
        {
          "internalType": "address",
          "name": "from",
          "type": "address"
        },
        {
          "internalType": "address",
          "name": "to",
          "type": "address"
        },
        {
          "internalType": "uint256",
          "name": "tokenId",
          "type": "uint256"
        }
      ],
      "name": "transferFrom",
      "outputs": [],
      "stateMutability": "nonpayable",
      "type": "function"
    },
    {
      "inputs": [
        {
          "internalType": "uint256",
          "name": "tokenId",
          "type": "uint256"
        }
      ],
      "name": "burn",
      "outputs": [],
      "stateMutability": "nonpayable",
      "type": "function"
    },
    {
      "inputs": [
        {
          "internalType": "bytes4",
          "name": "interfaceId",
          "type": "bytes4"
        }
      ],
      "name": "supportsInterface",
      "outputs": [
        {
          "internalType": "bool",
          "name": "",
          "type": "bool"
        }
      ],
      "stateMutability": "view",
      "type": "function"
    },
    {
      "inputs": [
        {
          "internalType": "string",
          "name": "newBaseUri",
          "type": "string"
        }
      ],
      "name": "setBaseURI",
      "outputs": [],
      "stateMutability": "nonpayable",
      "type": "function"
    },
    {
      "inputs": [
        {
          "internalType": "string",
          "name": "newHash",
          "type": "string"
        }
      ],
      "name": "setHash",
      "outputs": [],
      "stateMutability": "nonpayable",
      "type": "function"
    },
    {
      "inputs": [
        {
          "internalType": "address",
          "name": "to",
          "type": "address"
        },
        {
          "internalType": "uint256",
          "name": "tokenId",
          "type": "uint256"
        }
      ],
      "name": "mint",
      "outputs": [],
      "stateMutability": "nonpayable",
      "type": "function"
    },
    {
      "inputs": [
        {
          "internalType": "uint256",
          "name": "tokenId",
          "type": "uint256"
        }
      ],
      "name": "tokenURI",
      "outputs": [
        {
          "internalType": "string",
          "name": "",
          "type": "string"
        }
      ],
      "stateMutability": "view",
      "type": "function"
    },
    {
      "inputs": [
        {
          "internalType": "uint256",
          "name": "tokenId",
          "type": "uint256"
        },
        {
          "internalType": "string",
          "name": "_tokenURI",
          "type": "string"
        }
      ],
      "name": "setTokenURI",
      "outputs": [],
      "stateMutability": "nonpayable",
      "type": "function"
    }
  ],
  "bytecode": "0x60806040523480156200001157600080fd5b50604051620051ab380380620051ab8339818101604052810190620000379190620004c6565b8383816002908051906020019062000051929190620003a4565b5080600390805190602001906200006a929190620003a4565b505050620000916000801b620000856200010e60201b60201c565b6200011660201b60201c565b620000d27f9f2df0fed2c77648de5860a4cc508cd0818c85b8b8a1ab4ceeef8d981c8956a6620000c66200010e60201b60201c565b6200011660201b60201c565b81600d9080519060200190620000ea929190620003a4565b5080600e908051906020019062000103929190620003a4565b5050505050620006c7565b600033905090565b6200012d82826200015e60201b620012d01760201c565b6200015981600160008581526020019081526020016000206200017460201b620012de1790919060201c565b505050565b620001708282620001ac60201b60201c565b5050565b6000620001a4836000018373ffffffffffffffffffffffffffffffffffffffff1660001b6200029d60201b60201c565b905092915050565b620001be82826200031760201b60201c565b6200029957600160008084815260200190815260200160002060000160008373ffffffffffffffffffffffffffffffffffffffff1673ffffffffffffffffffffffffffffffffffffffff16815260200190815260200160002060006101000a81548160ff0219169083151502179055506200023e6200010e60201b60201c565b73ffffffffffffffffffffffffffffffffffffffff168173ffffffffffffffffffffffffffffffffffffffff16837f2f8788117e7eff1d82e926ec794901d17c78024a50270940304540a733656f0d60405160405180910390a45b5050565b6000620002b183836200038160201b60201c565b6200030c57826000018290806001815401808255809150506001900390600052602060002001600090919091909150558260000180549050836001016000848152602001908152602001600020819055506001905062000311565b600090505b92915050565b600080600084815260200190815260200160002060000160008373ffffffffffffffffffffffffffffffffffffffff1673ffffffffffffffffffffffffffffffffffffffff16815260200190815260200160002060009054906101000a900460ff16905092915050565b600080836001016000848152602001908152602001600020541415905092915050565b828054620003b29062000633565b90600052602060002090601f016020900481019282620003d6576000855562000422565b82601f10620003f157805160ff191683800117855562000422565b8280016001018555821562000422579182015b828111156200042157825182559160200191906001019062000404565b5b50905062000431919062000435565b5090565b5b808211156200045057600081600090555060010162000436565b5090565b60006200046b6200046584620005ca565b62000596565b9050828152602081018484840111156200048457600080fd5b62000491848285620005fd565b509392505050565b600082601f830112620004ab57600080fd5b8151620004bd84826020860162000454565b91505092915050565b60008060008060808587031215620004dd57600080fd5b600085015167ffffffffffffffff811115620004f857600080fd5b620005068782880162000499565b945050602085015167ffffffffffffffff8111156200052457600080fd5b620005328782880162000499565b935050604085015167ffffffffffffffff8111156200055057600080fd5b6200055e8782880162000499565b925050606085015167ffffffffffffffff8111156200057c57600080fd5b6200058a8782880162000499565b91505092959194509250565b6000604051905081810181811067ffffffffffffffff82111715620005c057620005bf62000698565b5b8060405250919050565b600067ffffffffffffffff821115620005e857620005e762000698565b5b601f19601f8301169050602081019050919050565b60005b838110156200061d57808201518184015260208101905062000600565b838111156200062d576000848401525b50505050565b600060028204905060018216806200064c57607f821691505b6020821081141562000663576200066262000669565b5b50919050565b7f4e487b7100000000000000000000000000000000000000000000000000000000600052602260045260246000fd5b7f4e487b7100000000000000000000000000000000000000000000000000000000600052604160045260246000fd5b614ad480620006d76000396000f3fe608060405234801561001057600080fd5b50600436106101da5760003560e01c80634f6ccce711610104578063a217fddf116100a2578063ca15c87311610071578063ca15c87314610587578063d5391393146105b7578063d547741f146105d5578063e985e9c5146105f1576101da565b8063a217fddf14610501578063a22cb4651461051f578063b88d4fde1461053b578063c87b56dd14610557576101da565b806370a08231116100de57806370a08231146104535780639010d07c1461048357806391d14854146104b357806395d89b41146104e3576101da565b80634f6ccce7146103d757806355f804b3146104075780636352211e14610423576101da565b806323b872dd1161017c57806336568abe1161014b57806336568abe1461036757806340c10f191461038357806342842e0e1461039f57806342966c68146103bb576101da565b806323b872dd146102cf578063248a9ca3146102eb5780632f2ff15d1461031b5780632f745c5914610337576101da565b8063095ea7b3116101b8578063095ea7b31461025d578063162094c41461027957806318160ddd146102955780631ed83fd4146102b3576101da565b806301ffc9a7146101df57806306fdde031461020f578063081812fc1461022d575b600080fd5b6101f960048036038101906101f49190613640565b610621565b604051610206919061426c565b60405180910390f35b61021761069b565b60405161022491906142a2565b60405180910390f35b610247600480360381019061024291906136d3565b61072d565b6040516102549190614205565b60405180910390f35b61027760048036038101906102729190613563565b6107b2565b005b610293600480360381019061028e91906136fc565b6108ca565b005b61029d61092b565b6040516102aa91906145c4565b60405180910390f35b6102cd60048036038101906102c89190613692565b610938565b005b6102e960048036038101906102e4919061345d565b6109a5565b005b6103056004803603810190610300919061359f565b610a05565b6040516103129190614287565b60405180910390f35b610335600480360381019061033091906135c8565b610a24565b005b610351600480360381019061034c9190613563565b610a58565b60405161035e91906145c4565b60405180910390f35b610381600480360381019061037c91906135c8565b610afd565b005b61039d60048036038101906103989190613563565b610b31565b005b6103b960048036038101906103b4919061345d565b610baf565b005b6103d560048036038101906103d091906136d3565b610bcf565b005b6103f160048036038101906103ec91906136d3565b610c2b565b6040516103fe91906145c4565b60405180910390f35b610421600480360381019061041c9190613692565b610cc2565b005b61043d600480360381019061043891906136d3565b610d2f565b60405161044a9190614205565b60405180910390f35b61046d600480360381019061046891906133f8565b610de1565b60405161047a91906145c4565b60405180910390f35b61049d60048036038101906104989190613604565b610e99565b6040516104aa9190614205565b60405180910390f35b6104cd60048036038101906104c891906135c8565b610ec8565b6040516104da919061426c565b60405180910390f35b6104eb610f32565b6040516104f891906142a2565b60405180910390f35b610509610fc4565b6040516105169190614287565b60405180910390f35b61053960048036038101906105349190613527565b610fcb565b005b610555600480360381019061055091906134ac565b61114c565b005b610571600480360381019061056c91906136d3565b6111ae565b60405161057e91906142a2565b60405180910390f35b6105a1600480360381019061059c919061359f565b6111c0565b6040516105ae91906145c4565b60405180910390f35b6105bf6111e4565b6040516105cc9190614287565b60405180910390f35b6105ef60048036038101906105ea91906135c8565b611208565b005b61060b60048036038101906106069190613421565b61123c565b604051610618919061426c565b60405180910390f35b60007f780e9d63000000000000000000000000000000000000000000000000000000007bffffffffffffffffffffffffffffffffffffffffffffffffffffffff1916827bffffffffffffffffffffffffffffffffffffffffffffffffffffffff1916148061069457506106938261130e565b5b9050919050565b6060600280546106aa906148b2565b80601f01602080910402602001604051908101604052809291908181526020018280546106d6906148b2565b80156107235780601f106106f857610100808354040283529160200191610723565b820191906000526020600020905b81548152906001019060200180831161070657829003601f168201915b5050505050905090565b600061073882611388565b610777576040517f08c379a000000000000000000000000000000000000000000000000000000000815260040161076e90614464565b60405180910390fd5b6006600083815260200190815260200160002060009054906101000a900473ffffffffffffffffffffffffffffffffffffffff169050919050565b60006107bd82610d2f565b90508073ffffffffffffffffffffffffffffffffffffffff168373ffffffffffffffffffffffffffffffffffffffff16141561082e576040517f08c379a0000000000000000000000000000000000000000000000000000000008152600401610825906144e4565b60405180910390fd5b8073ffffffffffffffffffffffffffffffffffffffff1661084d6113f4565b73ffffffffffffffffffffffffffffffffffffffff16148061087c575061087b816108766113f4565b61123c565b5b6108bb576040517f08c379a00000000000000000000000000000000000000000000000000000000081526004016108b2906143a4565b60405180910390fd5b6108c583836113fc565b505050565b6108de6000801b6108d96113f4565b610ec8565b61091d576040517f08c379a0000000000000000000000000000000000000000000000000000000008152600401610914906144c4565b60405180910390fd5b61092782826114b5565b5050565b6000600a80549050905090565b61094c6000801b6109476113f4565b610ec8565b61098b576040517f08c379a000000000000000000000000000000000000000000000000000000000815260040161098290614524565b60405180910390fd5b80600e90805190602001906109a19291906131c7565b5050565b6109b66109b06113f4565b82611529565b6109f5576040517f08c379a00000000000000000000000000000000000000000000000000000000081526004016109ec90614504565b60405180910390fd5b610a00838383611607565b505050565b6000806000838152602001908152602001600020600101549050919050565b610a2e8282611863565b610a5381600160008581526020019081526020016000206112de90919063ffffffff16565b505050565b6000610a6383610de1565b8210610aa4576040517f08c379a0000000000000000000000000000000000000000000000000000000008152600401610a9b906142e4565b60405180910390fd5b600860008473ffffffffffffffffffffffffffffffffffffffff1673ffffffffffffffffffffffffffffffffffffffff168152602001908152602001600020600083815260200190815260200160002054905092915050565b610b07828261188c565b610b2c816001600085815260200190815260200160002061190f90919063ffffffff16565b505050565b610b627f9f2df0fed2c77648de5860a4cc508cd0818c85b8b8a1ab4ceeef8d981c8956a6610b5d6113f4565b610ec8565b610ba1576040517f08c379a0000000000000000000000000000000000000000000000000000000008152600401610b9890614584565b60405180910390fd5b610bab828261193f565b5050565b610bca8383836040518060200160405280600081525061114c565b505050565b610be0610bda6113f4565b82611529565b610c1f576040517f08c379a0000000000000000000000000000000000000000000000000000000008152600401610c1690614564565b60405180910390fd5b610c2881611b0d565b50565b6000610c3561092b565b8210610c76576040517f08c379a0000000000000000000000000000000000000000000000000000000008152600401610c6d90614544565b60405180910390fd5b600a8281548110610cb0577f4e487b7100000000000000000000000000000000000000000000000000000000600052603260045260246000fd5b90600052602060002001549050919050565b610cd66000801b610cd16113f4565b610ec8565b610d15576040517f08c379a0000000000000000000000000000000000000000000000000000000008152600401610d0c90614524565b60405180910390fd5b80600d9080519060200190610d2b9291906131c7565b5050565b6000806004600084815260200190815260200160002060009054906101000a900473ffffffffffffffffffffffffffffffffffffffff169050600073ffffffffffffffffffffffffffffffffffffffff168173ffffffffffffffffffffffffffffffffffffffff161415610dd8576040517f08c379a0000000000000000000000000000000000000000000000000000000008152600401610dcf906143e4565b60405180910390fd5b80915050919050565b60008073ffffffffffffffffffffffffffffffffffffffff168273ffffffffffffffffffffffffffffffffffffffff161415610e52576040517f08c379a0000000000000000000000000000000000000000000000000000000008152600401610e49906143c4565b60405180910390fd5b600560008373ffffffffffffffffffffffffffffffffffffffff1673ffffffffffffffffffffffffffffffffffffffff168152602001908152602001600020549050919050565b6000610ec08260016000868152602001908152602001600020611b1990919063ffffffff16565b905092915050565b600080600084815260200190815260200160002060000160008373ffffffffffffffffffffffffffffffffffffffff1673ffffffffffffffffffffffffffffffffffffffff16815260200190815260200160002060009054906101000a900460ff16905092915050565b606060038054610f41906148b2565b80601f0160208091040260200160405190810160405280929190818152602001828054610f6d906148b2565b8015610fba5780601f10610f8f57610100808354040283529160200191610fba565b820191906000526020600020905b815481529060010190602001808311610f9d57829003601f168201915b5050505050905090565b6000801b81565b610fd36113f4565b73ffffffffffffffffffffffffffffffffffffffff168273ffffffffffffffffffffffffffffffffffffffff161415611041576040517f08c379a000000000000000000000000000000000000000000000000000000000815260040161103890614364565b60405180910390fd5b806007600061104e6113f4565b73ffffffffffffffffffffffffffffffffffffffff1673ffffffffffffffffffffffffffffffffffffffff16815260200190815260200160002060008473ffffffffffffffffffffffffffffffffffffffff1673ffffffffffffffffffffffffffffffffffffffff16815260200190815260200160002060006101000a81548160ff0219169083151502179055508173ffffffffffffffffffffffffffffffffffffffff166110fb6113f4565b73ffffffffffffffffffffffffffffffffffffffff167f17307eab39ab6107e8899845ad3d59bd9653f200f220920489ca2b5937696c3183604051611140919061426c565b60405180910390a35050565b61115d6111576113f4565b83611529565b61119c576040517f08c379a000000000000000000000000000000000000000000000000000000000815260040161119390614504565b60405180910390fd5b6111a884848484611b33565b50505050565b60606111b982611b8f565b9050919050565b60006111dd60016000848152602001908152602001600020611ce1565b9050919050565b7f9f2df0fed2c77648de5860a4cc508cd0818c85b8b8a1ab4ceeef8d981c8956a681565b6112128282611cf6565b611237816001600085815260200190815260200160002061190f90919063ffffffff16565b505050565b6000600760008473ffffffffffffffffffffffffffffffffffffffff1673ffffffffffffffffffffffffffffffffffffffff16815260200190815260200160002060008373ffffffffffffffffffffffffffffffffffffffff1673ffffffffffffffffffffffffffffffffffffffff16815260200190815260200160002060009054906101000a900460ff16905092915050565b6112da8282611d1f565b5050565b6000611306836000018373ffffffffffffffffffffffffffffffffffffffff1660001b611dff565b905092915050565b60007f780e9d63000000000000000000000000000000000000000000000000000000007bffffffffffffffffffffffffffffffffffffffffffffffffffffffff1916827bffffffffffffffffffffffffffffffffffffffffffffffffffffffff19161480611381575061138082611e6f565b5b9050919050565b60008073ffffffffffffffffffffffffffffffffffffffff166004600084815260200190815260200160002060009054906101000a900473ffffffffffffffffffffffffffffffffffffffff1673ffffffffffffffffffffffffffffffffffffffff1614159050919050565b600033905090565b816006600083815260200190815260200160002060006101000a81548173ffffffffffffffffffffffffffffffffffffffff021916908373ffffffffffffffffffffffffffffffffffffffff160217905550808273ffffffffffffffffffffffffffffffffffffffff1661146f83610d2f565b73ffffffffffffffffffffffffffffffffffffffff167f8c5be1e5ebec7d5bd14f71427d1e84f3dd0314c0f7b2291e5b200ac8c7c3b92560405160405180910390a45050565b6114be82611388565b6114fd576040517f08c379a00000000000000000000000000000000000000000000000000000000081526004016114f490614404565b60405180910390fd5b80600c600084815260200190815260200160002090805190602001906115249291906131c7565b505050565b600061153482611388565b611573576040517f08c379a000000000000000000000000000000000000000000000000000000000815260040161156a90614384565b60405180910390fd5b600061157e83610d2f565b90508073ffffffffffffffffffffffffffffffffffffffff168473ffffffffffffffffffffffffffffffffffffffff1614806115ed57508373ffffffffffffffffffffffffffffffffffffffff166115d58461072d565b73ffffffffffffffffffffffffffffffffffffffff16145b806115fe57506115fd818561123c565b5b91505092915050565b8273ffffffffffffffffffffffffffffffffffffffff1661162782610d2f565b73ffffffffffffffffffffffffffffffffffffffff161461167d576040517f08c379a000000000000000000000000000000000000000000000000000000000815260040161167490614484565b60405180910390fd5b600073ffffffffffffffffffffffffffffffffffffffff168273ffffffffffffffffffffffffffffffffffffffff1614156116ed576040517f08c379a00000000000000000000000000000000000000000000000000000000081526004016116e490614344565b60405180910390fd5b6116f8838383611f51565b6117036000826113fc565b6001600560008573ffffffffffffffffffffffffffffffffffffffff1673ffffffffffffffffffffffffffffffffffffffff16815260200190815260200160002060008282546117539190614794565b925050819055506001600560008473ffffffffffffffffffffffffffffffffffffffff1673ffffffffffffffffffffffffffffffffffffffff16815260200190815260200160002060008282546117aa91906146b3565b92505081905550816004600083815260200190815260200160002060006101000a81548173ffffffffffffffffffffffffffffffffffffffff021916908373ffffffffffffffffffffffffffffffffffffffff160217905550808273ffffffffffffffffffffffffffffffffffffffff168473ffffffffffffffffffffffffffffffffffffffff167fddf252ad1be2c89b69c2b068fc378daa952ba7f163c4a11628f55a4df523b3ef60405160405180910390a4505050565b61186c82610a05565b61187d816118786113f4565b611f61565b6118878383611d1f565b505050565b6118946113f4565b73ffffffffffffffffffffffffffffffffffffffff168173ffffffffffffffffffffffffffffffffffffffff1614611901576040517f08c379a00000000000000000000000000000000000000000000000000000000081526004016118f8906145a4565b60405180910390fd5b61190b8282611ffe565b5050565b6000611937836000018373ffffffffffffffffffffffffffffffffffffffff1660001b6120df565b905092915050565b600073ffffffffffffffffffffffffffffffffffffffff168273ffffffffffffffffffffffffffffffffffffffff1614156119af576040517f08c379a00000000000000000000000000000000000000000000000000000000081526004016119a690614424565b60405180910390fd5b6119b881611388565b156119f8576040517f08c379a00000000000000000000000000000000000000000000000000000000081526004016119ef90614324565b60405180910390fd5b611a0460008383611f51565b6001600560008473ffffffffffffffffffffffffffffffffffffffff1673ffffffffffffffffffffffffffffffffffffffff1681526020019081526020016000206000828254611a5491906146b3565b92505081905550816004600083815260200190815260200160002060006101000a81548173ffffffffffffffffffffffffffffffffffffffff021916908373ffffffffffffffffffffffffffffffffffffffff160217905550808273ffffffffffffffffffffffffffffffffffffffff16600073ffffffffffffffffffffffffffffffffffffffff167fddf252ad1be2c89b69c2b068fc378daa952ba7f163c4a11628f55a4df523b3ef60405160405180910390a45050565b611b1681612265565b50565b6000611b2883600001836122b8565b60001c905092915050565b611b3e848484611607565b611b4a84848484612309565b611b89576040517f08c379a0000000000000000000000000000000000000000000000000000000008152600401611b8090614304565b60405180910390fd5b50505050565b6060611b9a82611388565b611bd9576040517f08c379a0000000000000000000000000000000000000000000000000000000008152600401611bd090614444565b60405180910390fd5b6000600c60008481526020019081526020016000208054611bf9906148b2565b80601f0160208091040260200160405190810160405280929190818152602001828054611c25906148b2565b8015611c725780601f10611c4757610100808354040283529160200191611c72565b820191906000526020600020905b815481529060010190602001808311611c5557829003601f168201915b505050505090506000611c836124a0565b9050600081511415611c99578192505050611cdc565b600082511115611cce578082604051602001611cb69291906141a7565b60405160208183030381529060405292505050611cdc565b611cd784612532565b925050505b919050565b6000611cef826000016125d9565b9050919050565b611cff82610a05565b611d1081611d0b6113f4565b611f61565b611d1a8383611ffe565b505050565b611d298282610ec8565b611dfb57600160008084815260200190815260200160002060000160008373ffffffffffffffffffffffffffffffffffffffff1673ffffffffffffffffffffffffffffffffffffffff16815260200190815260200160002060006101000a81548160ff021916908315150217905550611da06113f4565b73ffffffffffffffffffffffffffffffffffffffff168173ffffffffffffffffffffffffffffffffffffffff16837f2f8788117e7eff1d82e926ec794901d17c78024a50270940304540a733656f0d60405160405180910390a45b5050565b6000611e0b83836125ea565b611e64578260000182908060018154018082558091505060019003906000526020600020016000909190919091505582600001805490508360010160008481526020019081526020016000208190555060019050611e69565b600090505b92915050565b60007f80ac58cd000000000000000000000000000000000000000000000000000000007bffffffffffffffffffffffffffffffffffffffffffffffffffffffff1916827bffffffffffffffffffffffffffffffffffffffffffffffffffffffff19161480611f3a57507f5b5e139f000000000000000000000000000000000000000000000000000000007bffffffffffffffffffffffffffffffffffffffffffffffffffffffff1916827bffffffffffffffffffffffffffffffffffffffffffffffffffffffff1916145b80611f4a5750611f498261260d565b5b9050919050565b611f5c838383612687565b505050565b611f6b8282610ec8565b611ffa57611f908173ffffffffffffffffffffffffffffffffffffffff16601461279b565b611f9e8360001c602061279b565b604051602001611faf9291906141cb565b6040516020818303038152906040526040517f08c379a0000000000000000000000000000000000000000000000000000000008152600401611ff191906142a2565b60405180910390fd5b5050565b6120088282610ec8565b156120db57600080600084815260200190815260200160002060000160008373ffffffffffffffffffffffffffffffffffffffff1673ffffffffffffffffffffffffffffffffffffffff16815260200190815260200160002060006101000a81548160ff0219169083151502179055506120806113f4565b73ffffffffffffffffffffffffffffffffffffffff168173ffffffffffffffffffffffffffffffffffffffff16837ff6391f5c32d9c69d2a47ea670b442974b53935d1edc7fd64eb21e047a839171b60405160405180910390a45b5050565b600080836001016000848152602001908152602001600020549050600081146122595760006001826121119190614794565b90506000600186600001805490506121299190614794565b90508181146121e4576000866000018281548110612170577f4e487b7100000000000000000000000000000000000000000000000000000000600052603260045260246000fd5b90600052602060002001549050808760000184815481106121ba577f4e487b7100000000000000000000000000000000000000000000000000000000600052603260045260246000fd5b90600052602060002001819055508387600101600083815260200190815260200160002081905550505b8560000180548061221e577f4e487b7100000000000000000000000000000000000000000000000000000000600052603160045260246000fd5b60019003818190600052602060002001600090559055856001016000868152602001908152602001600020600090556001935050505061225f565b60009150505b92915050565b61226e81612a95565b6000600c6000838152602001908152602001600020805461228e906148b2565b9050146122b557600c600082815260200190815260200160002060006122b4919061324d565b5b50565b60008260000182815481106122f6577f4e487b7100000000000000000000000000000000000000000000000000000000600052603260045260246000fd5b9060005260206000200154905092915050565b600061232a8473ffffffffffffffffffffffffffffffffffffffff16612ba6565b15612493578373ffffffffffffffffffffffffffffffffffffffff1663150b7a026123536113f4565b8786866040518563ffffffff1660e01b81526004016123759493929190614220565b602060405180830381600087803b15801561238f57600080fd5b505af19250505080156123c057506040513d601f19601f820116820180604052508101906123bd9190613669565b60015b612443573d80600081146123f0576040519150601f19603f3d011682016040523d82523d6000602084013e6123f5565b606091505b5060008151141561243b576040517f08c379a000000000000000000000000000000000000000000000000000000000815260040161243290614304565b60405180910390fd5b805181602001fd5b63150b7a0260e01b7bffffffffffffffffffffffffffffffffffffffffffffffffffffffff1916817bffffffffffffffffffffffffffffffffffffffffffffffffffffffff191614915050612498565b600190505b949350505050565b6060600d80546124af906148b2565b80601f01602080910402602001604051908101604052809291908181526020018280546124db906148b2565b80156125285780601f106124fd57610100808354040283529160200191612528565b820191906000526020600020905b81548152906001019060200180831161250b57829003601f168201915b5050505050905090565b606061253d82611388565b61257c576040517f08c379a0000000000000000000000000000000000000000000000000000000008152600401612573906144a4565b60405180910390fd5b60006125866124a0565b905060008151116125a657604051806020016040528060008152506125d1565b806125b084612bb9565b6040516020016125c19291906141a7565b6040516020818303038152906040525b915050919050565b600081600001805490509050919050565b600080836001016000848152602001908152602001600020541415905092915050565b60007f5a05180f000000000000000000000000000000000000000000000000000000007bffffffffffffffffffffffffffffffffffffffffffffffffffffffff1916827bffffffffffffffffffffffffffffffffffffffffffffffffffffffff19161480612680575061267f82612d66565b5b9050919050565b612692838383612de0565b600073ffffffffffffffffffffffffffffffffffffffff168373ffffffffffffffffffffffffffffffffffffffff1614156126d5576126d081612de5565b612714565b8173ffffffffffffffffffffffffffffffffffffffff168373ffffffffffffffffffffffffffffffffffffffff1614612713576127128382612e2e565b5b5b600073ffffffffffffffffffffffffffffffffffffffff168273ffffffffffffffffffffffffffffffffffffffff1614156127575761275281612f9b565b612796565b8273ffffffffffffffffffffffffffffffffffffffff168273ffffffffffffffffffffffffffffffffffffffff16146127955761279482826130de565b5b5b505050565b6060600060028360026127ae919061473a565b6127b891906146b3565b67ffffffffffffffff8111156127f7577f4e487b7100000000000000000000000000000000000000000000000000000000600052604160045260246000fd5b6040519080825280601f01601f1916602001820160405280156128295781602001600182028036833780820191505090505b5090507f300000000000000000000000000000000000000000000000000000000000000081600081518110612887577f4e487b7100000000000000000000000000000000000000000000000000000000600052603260045260246000fd5b60200101907effffffffffffffffffffffffffffffffffffffffffffffffffffffffffffff1916908160001a9053507f780000000000000000000000000000000000000000000000000000000000000081600181518110612911577f4e487b7100000000000000000000000000000000000000000000000000000000600052603260045260246000fd5b60200101907effffffffffffffffffffffffffffffffffffffffffffffffffffffffffffff1916908160001a90535060006001846002612951919061473a565b61295b91906146b3565b90505b6001811115612a47577f3031323334353637383961626364656600000000000000000000000000000000600f8616601081106129c3577f4e487b7100000000000000000000000000000000000000000000000000000000600052603260045260246000fd5b1a60f81b828281518110612a00577f4e487b7100000000000000000000000000000000000000000000000000000000600052603260045260246000fd5b60200101907effffffffffffffffffffffffffffffffffffffffffffffffffffffffffffff1916908160001a905350600485901c945080612a4090614888565b905061295e565b5060008414612a8b576040517f08c379a0000000000000000000000000000000000000000000000000000000008152600401612a82906142c4565b60405180910390fd5b8091505092915050565b6000612aa082610d2f565b9050612aae81600084611f51565b612ab96000836113fc565b6001600560008373ffffffffffffffffffffffffffffffffffffffff1673ffffffffffffffffffffffffffffffffffffffff1681526020019081526020016000206000828254612b099190614794565b925050819055506004600083815260200190815260200160002060006101000a81549073ffffffffffffffffffffffffffffffffffffffff021916905581600073ffffffffffffffffffffffffffffffffffffffff168273ffffffffffffffffffffffffffffffffffffffff167fddf252ad1be2c89b69c2b068fc378daa952ba7f163c4a11628f55a4df523b3ef60405160405180910390a45050565b600080823b905060008111915050919050565b60606000821415612c01576040518060400160405280600181526020017f30000000000000000000000000000000000000000000000000000000000000008152509050612d61565b600082905060005b60008214612c33578080612c1c906148e4565b915050600a82612c2c9190614709565b9150612c09565b60008167ffffffffffffffff811115612c75577f4e487b7100000000000000000000000000000000000000000000000000000000600052604160045260246000fd5b6040519080825280601f01601f191660200182016040528015612ca75781602001600182028036833780820191505090505b5090505b60008514612d5a57600182612cc09190614794565b9150600a85612ccf919061492d565b6030612cdb91906146b3565b60f81b818381518110612d17577f4e487b7100000000000000000000000000000000000000000000000000000000600052603260045260246000fd5b60200101907effffffffffffffffffffffffffffffffffffffffffffffffffffffffffffff1916908160001a905350600a85612d539190614709565b9450612cab565b8093505050505b919050565b60007f7965db0b000000000000000000000000000000000000000000000000000000007bffffffffffffffffffffffffffffffffffffffffffffffffffffffff1916827bffffffffffffffffffffffffffffffffffffffffffffffffffffffff19161480612dd95750612dd88261315d565b5b9050919050565b505050565b600a80549050600b600083815260200190815260200160002081905550600a81908060018154018082558091505060019003906000526020600020016000909190919091505550565b60006001612e3b84610de1565b612e459190614794565b9050600060096000848152602001908152602001600020549050818114612f2a576000600860008673ffffffffffffffffffffffffffffffffffffffff1673ffffffffffffffffffffffffffffffffffffffff168152602001908152602001600020600084815260200190815260200160002054905080600860008773ffffffffffffffffffffffffffffffffffffffff1673ffffffffffffffffffffffffffffffffffffffff168152602001908152602001600020600084815260200190815260200160002081905550816009600083815260200190815260200160002081905550505b6009600084815260200190815260200160002060009055600860008573ffffffffffffffffffffffffffffffffffffffff1673ffffffffffffffffffffffffffffffffffffffff16815260200190815260200160002060008381526020019081526020016000206000905550505050565b60006001600a80549050612faf9190614794565b90506000600b60008481526020019081526020016000205490506000600a8381548110613005577f4e487b7100000000000000000000000000000000000000000000000000000000600052603260045260246000fd5b9060005260206000200154905080600a838154811061304d577f4e487b7100000000000000000000000000000000000000000000000000000000600052603260045260246000fd5b906000526020600020018190555081600b600083815260200190815260200160002081905550600b600085815260200190815260200160002060009055600a8054806130c2577f4e487b7100000000000000000000000000000000000000000000000000000000600052603160045260246000fd5b6001900381819060005260206000200160009055905550505050565b60006130e983610de1565b905081600860008573ffffffffffffffffffffffffffffffffffffffff1673ffffffffffffffffffffffffffffffffffffffff168152602001908152602001600020600083815260200190815260200160002081905550806009600084815260200190815260200160002081905550505050565b60007f01ffc9a7000000000000000000000000000000000000000000000000000000007bffffffffffffffffffffffffffffffffffffffffffffffffffffffff1916827bffffffffffffffffffffffffffffffffffffffffffffffffffffffff1916149050919050565b8280546131d3906148b2565b90600052602060002090601f0160209004810192826131f5576000855561323c565b82601f1061320e57805160ff191683800117855561323c565b8280016001018555821561323c579182015b8281111561323b578251825591602001919060010190613220565b5b509050613249919061328d565b5090565b508054613259906148b2565b6000825580601f1061326b575061328a565b601f016020900490600052602060002090810190613289919061328d565b5b50565b5b808211156132a657600081600090555060010161328e565b5090565b60006132bd6132b884614610565b6145df565b9050828152602081018484840111156132d557600080fd5b6132e0848285614846565b509392505050565b60006132fb6132f684614640565b6145df565b90508281526020810184848401111561331357600080fd5b61331e848285614846565b509392505050565b60008135905061333581614a2b565b92915050565b60008135905061334a81614a42565b92915050565b60008135905061335f81614a59565b92915050565b60008135905061337481614a70565b92915050565b60008151905061338981614a70565b92915050565b600082601f8301126133a057600080fd5b81356133b08482602086016132aa565b91505092915050565b600082601f8301126133ca57600080fd5b81356133da8482602086016132e8565b91505092915050565b6000813590506133f281614a87565b92915050565b60006020828403121561340a57600080fd5b600061341884828501613326565b91505092915050565b6000806040838503121561343457600080fd5b600061344285828601613326565b925050602061345385828601613326565b9150509250929050565b60008060006060848603121561347257600080fd5b600061348086828701613326565b935050602061349186828701613326565b92505060406134a2868287016133e3565b9150509250925092565b600080600080608085870312156134c257600080fd5b60006134d087828801613326565b94505060206134e187828801613326565b93505060406134f2878288016133e3565b925050606085013567ffffffffffffffff81111561350f57600080fd5b61351b8782880161338f565b91505092959194509250565b6000806040838503121561353a57600080fd5b600061354885828601613326565b92505060206135598582860161333b565b9150509250929050565b6000806040838503121561357657600080fd5b600061358485828601613326565b9250506020613595858286016133e3565b9150509250929050565b6000602082840312156135b157600080fd5b60006135bf84828501613350565b91505092915050565b600080604083850312156135db57600080fd5b60006135e985828601613350565b92505060206135fa85828601613326565b9150509250929050565b6000806040838503121561361757600080fd5b600061362585828601613350565b9250506020613636858286016133e3565b9150509250929050565b60006020828403121561365257600080fd5b600061366084828501613365565b91505092915050565b60006020828403121561367b57600080fd5b60006136898482850161337a565b91505092915050565b6000602082840312156136a457600080fd5b600082013567ffffffffffffffff8111156136be57600080fd5b6136ca848285016133b9565b91505092915050565b6000602082840312156136e557600080fd5b60006136f3848285016133e3565b91505092915050565b6000806040838503121561370f57600080fd5b600061371d858286016133e3565b925050602083013567ffffffffffffffff81111561373a57600080fd5b613746858286016133b9565b9150509250929050565b613759816147c8565b82525050565b613768816147da565b82525050565b613777816147e6565b82525050565b600061378882614670565b6137928185614686565b93506137a2818560208601614855565b6137ab81614a1a565b840191505092915050565b60006137c18261467b565b6137cb8185614697565b93506137db818560208601614855565b6137e481614a1a565b840191505092915050565b60006137fa8261467b565b61380481856146a8565b9350613814818560208601614855565b80840191505092915050565b600061382d602083614697565b91507f537472696e67733a20686578206c656e67746820696e73756666696369656e746000830152602082019050919050565b600061386d602b83614697565b91507f455243373231456e756d657261626c653a206f776e657220696e646578206f7560008301527f74206f6620626f756e64730000000000000000000000000000000000000000006020830152604082019050919050565b60006138d3603283614697565b91507f4552433732313a207472616e7366657220746f206e6f6e20455243373231526560008301527f63656976657220696d706c656d656e74657200000000000000000000000000006020830152604082019050919050565b6000613939601c83614697565b91507f4552433732313a20746f6b656e20616c7265616479206d696e746564000000006000830152602082019050919050565b6000613979602483614697565b91507f4552433732313a207472616e7366657220746f20746865207a65726f2061646460008301527f72657373000000000000000000000000000000000000000000000000000000006020830152604082019050919050565b60006139df601983614697565b91507f4552433732313a20617070726f766520746f2063616c6c6572000000000000006000830152602082019050919050565b6000613a1f602c83614697565b91507f4552433732313a206f70657261746f7220717565727920666f72206e6f6e657860008301527f697374656e7420746f6b656e00000000000000000000000000000000000000006020830152604082019050919050565b6000613a85603883614697565b91507f4552433732313a20617070726f76652063616c6c6572206973206e6f74206f7760008301527f6e6572206e6f7220617070726f76656420666f7220616c6c00000000000000006020830152604082019050919050565b6000613aeb602a83614697565b91507f4552433732313a2062616c616e636520717565727920666f7220746865207a6560008301527f726f2061646472657373000000000000000000000000000000000000000000006020830152604082019050919050565b6000613b51602983614697565b91507f4552433732313a206f776e657220717565727920666f72206e6f6e657869737460008301527f656e7420746f6b656e00000000000000000000000000000000000000000000006020830152604082019050919050565b6000613bb7602e83614697565b91507f45524337323155524953746f726167653a2055524920736574206f66206e6f6e60008301527f6578697374656e7420746f6b656e0000000000000000000000000000000000006020830152604082019050919050565b6000613c1d602083614697565b91507f4552433732313a206d696e7420746f20746865207a65726f20616464726573736000830152602082019050919050565b6000613c5d603183614697565b91507f45524337323155524953746f726167653a2055524920717565727920666f722060008301527f6e6f6e6578697374656e7420746f6b656e0000000000000000000000000000006020830152604082019050919050565b6000613cc3602c83614697565b91507f4552433732313a20617070726f76656420717565727920666f72206e6f6e657860008301527f697374656e7420746f6b656e00000000000000000000000000000000000000006020830152604082019050919050565b6000613d29602983614697565b91507f4552433732313a207472616e73666572206f6620746f6b656e2074686174206960008301527f73206e6f74206f776e00000000000000000000000000000000000000000000006020830152604082019050919050565b6000613d8f602f83614697565b91507f4552433732314d657461646174613a2055524920717565727920666f72206e6f60008301527f6e6578697374656e7420746f6b656e00000000000000000000000000000000006020830152604082019050919050565b6000613df5602e83614697565b91507f4552433732313a206d75737420686176652061646d696e20726f6c6520746f2060008301527f73657420546f6b656e20555249730000000000000000000000000000000000006020830152604082019050919050565b6000613e5b602183614697565b91507f4552433732313a20617070726f76616c20746f2063757272656e74206f776e6560008301527f72000000000000000000000000000000000000000000000000000000000000006020830152604082019050919050565b6000613ec1603183614697565b91507f4552433732313a207472616e736665722063616c6c6572206973206e6f74206f60008301527f776e6572206e6f7220617070726f7665640000000000000000000000000000006020830152604082019050919050565b6000613f27602e83614697565b91507f4552433732313a206d75737420686176652061646d696e20726f6c6520746f2060008301527f6368616e676520626173655572690000000000000000000000000000000000006020830152604082019050919050565b6000613f8d602c83614697565b91507f455243373231456e756d657261626c653a20676c6f62616c20696e646578206f60008301527f7574206f6620626f756e647300000000000000000000000000000000000000006020830152604082019050919050565b6000613ff36017836146a8565b91507f416363657373436f6e74726f6c3a206163636f756e74200000000000000000006000830152601782019050919050565b6000614033603083614697565b91507f4552433732314275726e61626c653a2063616c6c6572206973206e6f74206f7760008301527f6e6572206e6f7220617070726f766564000000000000000000000000000000006020830152604082019050919050565b6000614099602583614697565b91507f4552433732313a206d7573742068617665206d696e74657220726f6c6520746f60008301527f206d696e740000000000000000000000000000000000000000000000000000006020830152604082019050919050565b60006140ff6011836146a8565b91507f206973206d697373696e6720726f6c65200000000000000000000000000000006000830152601182019050919050565b600061413f602f83614697565b91507f416363657373436f6e74726f6c3a2063616e206f6e6c792072656e6f756e636560008301527f20726f6c657320666f722073656c6600000000000000000000000000000000006020830152604082019050919050565b6141a18161483c565b82525050565b60006141b382856137ef565b91506141bf82846137ef565b91508190509392505050565b60006141d682613fe6565b91506141e282856137ef565b91506141ed826140f2565b91506141f982846137ef565b91508190509392505050565b600060208201905061421a6000830184613750565b92915050565b60006080820190506142356000830187613750565b6142426020830186613750565b61424f6040830185614198565b8181036060830152614261818461377d565b905095945050505050565b6000602082019050614281600083018461375f565b92915050565b600060208201905061429c600083018461376e565b92915050565b600060208201905081810360008301526142bc81846137b6565b905092915050565b600060208201905081810360008301526142dd81613820565b9050919050565b600060208201905081810360008301526142fd81613860565b9050919050565b6000602082019050818103600083015261431d816138c6565b9050919050565b6000602082019050818103600083015261433d8161392c565b9050919050565b6000602082019050818103600083015261435d8161396c565b9050919050565b6000602082019050818103600083015261437d816139d2565b9050919050565b6000602082019050818103600083015261439d81613a12565b9050919050565b600060208201905081810360008301526143bd81613a78565b9050919050565b600060208201905081810360008301526143dd81613ade565b9050919050565b600060208201905081810360008301526143fd81613b44565b9050919050565b6000602082019050818103600083015261441d81613baa565b9050919050565b6000602082019050818103600083015261443d81613c10565b9050919050565b6000602082019050818103600083015261445d81613c50565b9050919050565b6000602082019050818103600083015261447d81613cb6565b9050919050565b6000602082019050818103600083015261449d81613d1c565b9050919050565b600060208201905081810360008301526144bd81613d82565b9050919050565b600060208201905081810360008301526144dd81613de8565b9050919050565b600060208201905081810360008301526144fd81613e4e565b9050919050565b6000602082019050818103600083015261451d81613eb4565b9050919050565b6000602082019050818103600083015261453d81613f1a565b9050919050565b6000602082019050818103600083015261455d81613f80565b9050919050565b6000602082019050818103600083015261457d81614026565b9050919050565b6000602082019050818103600083015261459d8161408c565b9050919050565b600060208201905081810360008301526145bd81614132565b9050919050565b60006020820190506145d96000830184614198565b92915050565b6000604051905081810181811067ffffffffffffffff82111715614606576146056149eb565b5b8060405250919050565b600067ffffffffffffffff82111561462b5761462a6149eb565b5b601f19601f8301169050602081019050919050565b600067ffffffffffffffff82111561465b5761465a6149eb565b5b601f19601f8301169050602081019050919050565b600081519050919050565b600081519050919050565b600082825260208201905092915050565b600082825260208201905092915050565b600081905092915050565b60006146be8261483c565b91506146c98361483c565b9250827fffffffffffffffffffffffffffffffffffffffffffffffffffffffffffffffff038211156146fe576146fd61495e565b5b828201905092915050565b60006147148261483c565b915061471f8361483c565b92508261472f5761472e61498d565b5b828204905092915050565b60006147458261483c565b91506147508361483c565b9250817fffffffffffffffffffffffffffffffffffffffffffffffffffffffffffffffff04831182151516156147895761478861495e565b5b828202905092915050565b600061479f8261483c565b91506147aa8361483c565b9250828210156147bd576147bc61495e565b5b828203905092915050565b60006147d38261481c565b9050919050565b60008115159050919050565b6000819050919050565b60007fffffffff0000000000000000000000000000000000000000000000000000000082169050919050565b600073ffffffffffffffffffffffffffffffffffffffff82169050919050565b6000819050919050565b82818337600083830152505050565b60005b83811015614873578082015181840152602081019050614858565b83811115614882576000848401525b50505050565b60006148938261483c565b915060008214156148a7576148a661495e565b5b600182039050919050565b600060028204905060018216806148ca57607f821691505b602082108114156148de576148dd6149bc565b5b50919050565b60006148ef8261483c565b91507fffffffffffffffffffffffffffffffffffffffffffffffffffffffffffffffff8214156149225761492161495e565b5b600182019050919050565b60006149388261483c565b91506149438361483c565b9250826149535761495261498d565b5b828206905092915050565b7f4e487b7100000000000000000000000000000000000000000000000000000000600052601160045260246000fd5b7f4e487b7100000000000000000000000000000000000000000000000000000000600052601260045260246000fd5b7f4e487b7100000000000000000000000000000000000000000000000000000000600052602260045260246000fd5b7f4e487b7100000000000000000000000000000000000000000000000000000000600052604160045260246000fd5b6000601f19601f8301169050919050565b614a34816147c8565b8114614a3f57600080fd5b50565b614a4b816147da565b8114614a5657600080fd5b50565b614a62816147e6565b8114614a6d57600080fd5b50565b614a79816147f0565b8114614a8457600080fd5b50565b614a908161483c565b8114614a9b57600080fd5b5056fea2646970667358221220af20552b5cb06115b51c26737b9277e03596308f5ce538042733f6abe8464a0d64736f6c63430008000033",
  "immutableReferences": {},
  "source": "// SPDX-License-Identifier: MIT\r\n\r\npragma solidity ^0.8.0;\r\n\r\nimport \"@openzeppelin/contracts/access/AccessControlEnumerable.sol\";\r\nimport \"@openzeppelin/contracts/utils/Context.sol\";\r\nimport \"@openzeppelin/contracts/token/ERC721/extensions/ERC721Enumerable.sol\";\r\nimport \"@openzeppelin/contracts/token/ERC721/extensions/ERC721URIStorage.sol\";\r\n\r\ncontract ARTToken is\r\n    Context,\r\n    AccessControlEnumerable,\r\n    ERC721Enumerable,\r\n    ERC721URIStorage\r\n{\r\n    bytes32 public constant MINTER_ROLE = keccak256(\"MINTER_ROLE\");\r\n\r\n    string private _internalBaseURI;\r\n    string private _hash;\r\n\r\n    constructor(\r\n        string memory name,\r\n        string memory symbol,\r\n        string memory baseURI,\r\n        string memory hash\r\n    ) public ERC721(name, symbol) {\r\n        _setupRole(DEFAULT_ADMIN_ROLE, _msgSender());\r\n\r\n        _setupRole(MINTER_ROLE, _msgSender());\r\n\r\n        _internalBaseURI = baseURI;\r\n\r\n        _hash = hash;\r\n\r\n    }\r\n\r\n    function burn(uint256 tokenId) public virtual {\r\n        require(\r\n            _isApprovedOrOwner(_msgSender(), tokenId),\r\n            \"ERC721Burnable: caller is not owner nor approved\"\r\n        );\r\n        _burn(tokenId);\r\n    }\r\n\r\n    function supportsInterface(bytes4 interfaceId)\r\n        public\r\n        view\r\n        virtual\r\n        override(ERC721Enumerable, AccessControlEnumerable, ERC721)\r\n        returns (bool)\r\n    {\r\n        return\r\n            interfaceId == type(IERC721Enumerable).interfaceId ||\r\n            super.supportsInterface(interfaceId);\r\n    }\r\n\r\n    function setBaseURI(string memory newBaseUri) public {\r\n        require(\r\n            hasRole(DEFAULT_ADMIN_ROLE, _msgSender()),\r\n            \"ERC721: must have admin role to change baseUri\"\r\n        );\r\n        _internalBaseURI = newBaseUri;\r\n    }\r\n\r\n    function setHash(string memory newHash) public {\r\n        require(\r\n            hasRole(DEFAULT_ADMIN_ROLE, _msgSender()),\r\n            \"ERC721: must have admin role to change baseUri\"\r\n        );\r\n       _hash = newHash;\r\n    }\r\n\r\n    function mint(address to, uint256 tokenId) public virtual {\r\n        require(\r\n            hasRole(MINTER_ROLE, _msgSender()),\r\n            \"ERC721: must have minter role to mint\"\r\n        );\r\n\r\n        _mint(to, tokenId);\r\n    }\r\n\r\n    function tokenURI(uint256 tokenId)\r\n        public\r\n        view\r\n        virtual\r\n        override(ERC721URIStorage, ERC721)\r\n        returns (string memory)\r\n    {\r\n        return super.tokenURI(tokenId);\r\n    }\r\n\r\n    function _beforeTokenTransfer(\r\n        address from,\r\n        address to,\r\n        uint256 tokenId\r\n    ) internal virtual override(ERC721, ERC721Enumerable) {\r\n        super._beforeTokenTransfer(from, to, tokenId);\r\n    }\r\n\r\n    function _burn(uint256 tokenId)\r\n        internal\r\n        virtual\r\n        override(ERC721, ERC721URIStorage)\r\n    {\r\n        super._burn(tokenId);\r\n    }\r\n\r\n    function _baseURI() internal view override returns (string memory) {\r\n        return _internalBaseURI;\r\n    }\r\n\r\n    function setTokenURI(uint256 tokenId, string memory _tokenURI) public {\r\n        require(\r\n            hasRole(DEFAULT_ADMIN_ROLE, _msgSender()),\r\n            \"ERC721: must have admin role to set Token URIs\"\r\n        );\r\n        super._setTokenURI(tokenId, _tokenURI);\r\n    }\r\n}\r\n",
  "sourcePath": "C:\\Users\\Filippo\\Documents\\GitHub\\art\\contracts\\ARTToken.sol",
  "compiler": {
    "name": "solc",
    "version": "0.8.0+commit.c7dfd78e.Emscripten.clang"
  },
  "schemaVersion": "3.4.3",
  "updatedAt": "2021-09-24T13:15:51.978Z",
  "devdoc": {
    "kind": "dev",
    "methods": {
      "approve(address,uint256)": {
        "details": "See {IERC721-approve}."
      },
      "balanceOf(address)": {
        "details": "See {IERC721-balanceOf}."
      },
      "getApproved(uint256)": {
        "details": "See {IERC721-getApproved}."
      },
      "getRoleAdmin(bytes32)": {
        "details": "Returns the admin role that controls `role`. See {grantRole} and {revokeRole}. To change a role's admin, use {_setRoleAdmin}."
      },
      "getRoleMember(bytes32,uint256)": {
        "details": "Returns one of the accounts that have `role`. `index` must be a value between 0 and {getRoleMemberCount}, non-inclusive. Role bearers are not sorted in any particular way, and their ordering may change at any point. WARNING: When using {getRoleMember} and {getRoleMemberCount}, make sure you perform all queries on the same block. See the following https://forum.openzeppelin.com/t/iterating-over-elements-on-enumerableset-in-openzeppelin-contracts/2296[forum post] for more information."
      },
      "getRoleMemberCount(bytes32)": {
        "details": "Returns the number of accounts that have `role`. Can be used together with {getRoleMember} to enumerate all bearers of a role."
      },
      "grantRole(bytes32,address)": {
        "details": "Overload {grantRole} to track enumerable memberships"
      },
      "hasRole(bytes32,address)": {
        "details": "Returns `true` if `account` has been granted `role`."
      },
      "isApprovedForAll(address,address)": {
        "details": "See {IERC721-isApprovedForAll}."
      },
      "name()": {
        "details": "See {IERC721Metadata-name}."
      },
      "ownerOf(uint256)": {
        "details": "See {IERC721-ownerOf}."
      },
      "renounceRole(bytes32,address)": {
        "details": "Overload {renounceRole} to track enumerable memberships"
      },
      "revokeRole(bytes32,address)": {
        "details": "Overload {revokeRole} to track enumerable memberships"
      },
      "safeTransferFrom(address,address,uint256)": {
        "details": "See {IERC721-safeTransferFrom}."
      },
      "safeTransferFrom(address,address,uint256,bytes)": {
        "details": "See {IERC721-safeTransferFrom}."
      },
      "setApprovalForAll(address,bool)": {
        "details": "See {IERC721-setApprovalForAll}."
      },
      "symbol()": {
        "details": "See {IERC721Metadata-symbol}."
      },
      "tokenByIndex(uint256)": {
        "details": "See {IERC721Enumerable-tokenByIndex}."
      },
      "tokenOfOwnerByIndex(address,uint256)": {
        "details": "See {IERC721Enumerable-tokenOfOwnerByIndex}."
      },
      "totalSupply()": {
        "details": "See {IERC721Enumerable-totalSupply}."
      },
      "transferFrom(address,address,uint256)": {
        "details": "See {IERC721-transferFrom}."
      }
    },
    "version": 1
  },
  "userdoc": {
    "kind": "user",
    "methods": {},
    "version": 1
  }
}